{
  "_format": "hh-sol-artifact-1",
  "contractName": "WavePortal",
  "sourceName": "contracts/WavePortal.sol",
  "abi": [
    {
      "inputs": [],
      "stateMutability": "payable",
      "type": "constructor"
    },
    {
      "anonymous": false,
      "inputs": [
        {
          "indexed": true,
          "internalType": "address",
          "name": "from",
          "type": "address"
        },
        {
          "indexed": false,
          "internalType": "uint256",
          "name": "timestamp",
          "type": "uint256"
        },
        {
          "indexed": false,
          "internalType": "string",
          "name": "message",
          "type": "string"
        }
      ],
      "name": "NewWave",
      "type": "event"
    },
    {
      "inputs": [
        {
          "internalType": "address",
          "name": "",
          "type": "address"
        }
      ],
      "name": "counts",
      "outputs": [
        {
          "internalType": "uint256",
          "name": "",
          "type": "uint256"
        }
      ],
      "stateMutability": "view",
      "type": "function"
    },
    {
      "inputs": [],
      "name": "getAllWaves",
      "outputs": [
        {
          "components": [
            {
              "internalType": "address",
              "name": "waver",
              "type": "address"
            },
            {
              "internalType": "string",
              "name": "message",
              "type": "string"
            },
            {
              "internalType": "uint256",
              "name": "timestamp",
              "type": "uint256"
            }
          ],
          "internalType": "struct WavePortal.Wave[]",
          "name": "",
          "type": "tuple[]"
        }
      ],
      "stateMutability": "view",
      "type": "function"
    },
    {
      "inputs": [],
      "name": "getTotalWaves",
      "outputs": [
        {
          "internalType": "uint256",
          "name": "",
          "type": "uint256"
        }
      ],
      "stateMutability": "view",
      "type": "function"
    },
    {
      "inputs": [],
      "name": "getUserWaves",
      "outputs": [
        {
          "internalType": "uint256",
          "name": "",
          "type": "uint256"
        }
      ],
      "stateMutability": "view",
      "type": "function"
    },
    {
      "inputs": [
        {
          "internalType": "address",
          "name": "",
          "type": "address"
        }
      ],
      "name": "lastWavedAt",
      "outputs": [
        {
          "internalType": "uint256",
          "name": "",
          "type": "uint256"
        }
      ],
      "stateMutability": "view",
      "type": "function"
    },
    {
      "inputs": [
        {
          "internalType": "string",
          "name": "_message",
          "type": "string"
        }
      ],
      "name": "wave",
      "outputs": [],
      "stateMutability": "nonpayable",
      "type": "function"
    }
  ],
  "bytecode": "0x60806040526200003360405180606001604052806024815260200162001687602491396200005b60201b620007a01760201c565b60644442620000439190620001a8565b6200004f919062000245565b600381905550620002ec565b620000fb8160405160240162000072919062000168565b6040516020818303038152906040527f41304fac000000000000000000000000000000000000000000000000000000007bffffffffffffffffffffffffffffffffffffffffffffffffffffffff19166020820180517bffffffffffffffffffffffffffffffffffffffffffffffffffffffff8381831617835250505050620000fe60201b60201c565b50565b60008151905060006a636f6e736f6c652e6c6f679050602083016000808483855afa5050505050565b600062000134826200018c565b62000140818562000197565b9350620001528185602086016200020f565b6200015d81620002db565b840191505092915050565b6000602082019050818103600083015262000184818462000127565b905092915050565b600081519050919050565b600082825260208201905092915050565b6000620001b58262000205565b9150620001c28362000205565b9250827fffffffffffffffffffffffffffffffffffffffffffffffffffffffffffffffff03821115620001fa57620001f96200027d565b5b828201905092915050565b6000819050919050565b60005b838110156200022f57808201518184015260208101905062000212565b838111156200023f576000848401525b50505050565b6000620002528262000205565b91506200025f8362000205565b925082620002725762000271620002ac565b5b828206905092915050565b7f4e487b7100000000000000000000000000000000000000000000000000000000600052601160045260246000fd5b7f4e487b7100000000000000000000000000000000000000000000000000000000600052601260045260246000fd5b6000601f19601f8301169050919050565b61138b80620002fc6000396000f3fe608060405234801561001057600080fd5b50600436106100625760003560e01c80630568e65e14610067578063449d46c0146100975780634ad88b38146100b35780639a2cdc08146100d1578063a42a4663146100ef578063bd43a9081461011f575b600080fd5b610081600480360381019061007c9190610b59565b61013d565b60405161008e9190610f2d565b60405180910390f35b6100b160048036038101906100ac9190610b82565b610155565b005b6100bb610526565b6040516100c89190610f2d565b60405180910390f35b6100d96105ec565b6040516100e69190610f2d565b60405180910390f35b61010960048036038101906101049190610b59565b610637565b6040516101169190610f2d565b60405180910390f35b61012761064f565b6040516101349190610deb565b60405180910390f35b60016020528060005260406000206000915090505481565b42610384600460003373ffffffffffffffffffffffffffffffffffffffff1673ffffffffffffffffffffffffffffffffffffffff168152602001908152602001600020546101a3919061103f565b106101e3576040517f08c379a00000000000000000000000000000000000000000000000000000000081526004016101da90610f0d565b60405180910390fd5b42600460003373ffffffffffffffffffffffffffffffffffffffff1673ffffffffffffffffffffffffffffffffffffffff168152602001908152602001600020819055506001600080828254610239919061103f565b9250508190555060018060003373ffffffffffffffffffffffffffffffffffffffff1673ffffffffffffffffffffffffffffffffffffffff168152602001908152602001600020600082825461028f919061103f565b92505081905550600260405180606001604052803373ffffffffffffffffffffffffffffffffffffffff16815260200183815260200142815250908060018154018082558091505060019003906000526020600020906003020160009091909190915060008201518160000160006101000a81548173ffffffffffffffffffffffffffffffffffffffff021916908373ffffffffffffffffffffffffffffffffffffffff1602179055506020820151816001019080519060200190610355929190610a39565b5060408201518160020155505060646003544244610373919061103f565b61037d919061103f565b6103879190611176565b600381905550600a600354116104d3576103d66040518060400160405280600781526020017f257320776f6e210000000000000000000000000000000000000000000000000081525033610839565b6000655af3107a4000905047811115610424576040517f08c379a000000000000000000000000000000000000000000000000000000000815260040161041b90610ecd565b60405180910390fd5b60003373ffffffffffffffffffffffffffffffffffffffff168260405161044a90610dd6565b60006040518083038185875af1925050503d8060008114610487576040519150601f19603f3d011682016040523d82523d6000602084013e61048c565b606091505b50509050806104d0576040517f08c379a00000000000000000000000000000000000000000000000000000000081526004016104c790610eed565b60405180910390fd5b50505b3373ffffffffffffffffffffffffffffffffffffffff167f5f7e16dc676677766a70e9c5628aa6c54ddb8b6e5188e2ae1e1f17f1ffbea716428360405161051b929190610f48565b60405180910390a250565b60006105a76040518060400160405280601681526020017f2573206861732077617665642025642074696d6573210000000000000000000081525033600160003373ffffffffffffffffffffffffffffffffffffffff1673ffffffffffffffffffffffffffffffffffffffff168152602001908152602001600020546108d5565b600160003373ffffffffffffffffffffffffffffffffffffffff1673ffffffffffffffffffffffffffffffffffffffff16815260200190815260200160002054905090565b600061062f6040518060400160405280601781526020017f5765206861766520256420746f74616c20776176657321000000000000000000815250600054610974565b600054905090565b60046020528060005260406000206000915090505481565b60606002805480602002602001604051908101604052809291908181526020016000905b8282101561079757838290600052602060002090600302016040518060600160405290816000820160009054906101000a900473ffffffffffffffffffffffffffffffffffffffff1673ffffffffffffffffffffffffffffffffffffffff1673ffffffffffffffffffffffffffffffffffffffff1681526020016001820180546106fc90611113565b80601f016020809104026020016040519081016040528092919081815260200182805461072890611113565b80156107755780601f1061074a57610100808354040283529160200191610775565b820191906000526020600020905b81548152906001019060200180831161075857829003601f168201915b5050505050815260200160028201548152505081526020019060010190610673565b50505050905090565b610836816040516024016107b49190610e0d565b6040516020818303038152906040527f41304fac000000000000000000000000000000000000000000000000000000007bffffffffffffffffffffffffffffffffffffffffffffffffffffffff19166020820180517bffffffffffffffffffffffffffffffffffffffffffffffffffffffff8381831617835250505050610a10565b50565b6108d1828260405160240161084f929190610e2f565b6040516020818303038152906040527f319af333000000000000000000000000000000000000000000000000000000007bffffffffffffffffffffffffffffffffffffffffffffffffffffffff19166020820180517bffffffffffffffffffffffffffffffffffffffffffffffffffffffff8381831617835250505050610a10565b5050565b61096f8383836040516024016108ed93929190610e5f565b6040516020818303038152906040527f07c81217000000000000000000000000000000000000000000000000000000007bffffffffffffffffffffffffffffffffffffffffffffffffffffffff19166020820180517bffffffffffffffffffffffffffffffffffffffffffffffffffffffff8381831617835250505050610a10565b505050565b610a0c828260405160240161098a929190610e9d565b6040516020818303038152906040527f9710a9d0000000000000000000000000000000000000000000000000000000007bffffffffffffffffffffffffffffffffffffffffffffffffffffffff19166020820180517bffffffffffffffffffffffffffffffffffffffffffffffffffffffff8381831617835250505050610a10565b5050565b60008151905060006a636f6e736f6c652e6c6f679050602083016000808483855afa5050505050565b828054610a4590611113565b90600052602060002090601f016020900481019282610a675760008555610aae565b82601f10610a8057805160ff1916838001178555610aae565b82800160010185558215610aae579182015b82811115610aad578251825591602001919060010190610a92565b5b509050610abb9190610abf565b5090565b5b80821115610ad8576000816000905550600101610ac0565b5090565b6000610aef610aea84610f9d565b610f78565b905082815260208101848484011115610b0757600080fd5b610b128482856110d1565b509392505050565b600081359050610b298161133e565b92915050565b600082601f830112610b4057600080fd5b8135610b50848260208601610adc565b91505092915050565b600060208284031215610b6b57600080fd5b6000610b7984828501610b1a565b91505092915050565b600060208284031215610b9457600080fd5b600082013567ffffffffffffffff811115610bae57600080fd5b610bba84828501610b2f565b91505092915050565b6000610bcf8383610d68565b905092915050565b610be081611095565b82525050565b610bef81611095565b82525050565b6000610c0082610fde565b610c0a8185611001565b935083602082028501610c1c85610fce565b8060005b85811015610c585784840389528151610c398582610bc3565b9450610c4483610ff4565b925060208a01995050600181019050610c20565b50829750879550505050505092915050565b6000610c7582610fe9565b610c7f818561101d565b9350610c8f8185602086016110e0565b610c9881611263565b840191505092915050565b6000610cae82610fe9565b610cb8818561102e565b9350610cc88185602086016110e0565b610cd181611263565b840191505092915050565b6000610ce960348361102e565b9150610cf482611274565b604082019050919050565b6000610d0c60278361102e565b9150610d17826112c3565b604082019050919050565b6000610d2f600083611012565b9150610d3a82611312565b600082019050919050565b6000610d5260088361102e565b9150610d5d82611315565b602082019050919050565b6000606083016000830151610d806000860182610bd7565b5060208301518482036020860152610d988282610c6a565b9150506040830151610dad6040860182610db8565b508091505092915050565b610dc1816110c7565b82525050565b610dd0816110c7565b82525050565b6000610de182610d22565b9150819050919050565b60006020820190508181036000830152610e058184610bf5565b905092915050565b60006020820190508181036000830152610e278184610ca3565b905092915050565b60006040820190508181036000830152610e498185610ca3565b9050610e586020830184610be6565b9392505050565b60006060820190508181036000830152610e798186610ca3565b9050610e886020830185610be6565b610e956040830184610dc7565b949350505050565b60006040820190508181036000830152610eb78185610ca3565b9050610ec66020830184610dc7565b9392505050565b60006020820190508181036000830152610ee681610cdc565b9050919050565b60006020820190508181036000830152610f0681610cff565b9050919050565b60006020820190508181036000830152610f2681610d45565b9050919050565b6000602082019050610f426000830184610dc7565b92915050565b6000604082019050610f5d6000830185610dc7565b8181036020830152610f6f8184610ca3565b90509392505050565b6000610f82610f93565b9050610f8e8282611145565b919050565b6000604051905090565b600067ffffffffffffffff821115610fb857610fb7611234565b5b610fc182611263565b9050602081019050919050565b6000819050602082019050919050565b600081519050919050565b600081519050919050565b6000602082019050919050565b600082825260208201905092915050565b600081905092915050565b600082825260208201905092915050565b600082825260208201905092915050565b600061104a826110c7565b9150611055836110c7565b9250827fffffffffffffffffffffffffffffffffffffffffffffffffffffffffffffffff0382111561108a576110896111a7565b5b828201905092915050565b60006110a0826110a7565b9050919050565b600073ffffffffffffffffffffffffffffffffffffffff82169050919050565b6000819050919050565b82818337600083830152505050565b60005b838110156110fe5780820151818401526020810190506110e3565b8381111561110d576000848401525b50505050565b6000600282049050600182168061112b57607f821691505b6020821081141561113f5761113e611205565b5b50919050565b61114e82611263565b810181811067ffffffffffffffff8211171561116d5761116c611234565b5b80604052505050565b6000611181826110c7565b915061118c836110c7565b92508261119c5761119b6111d6565b5b828206905092915050565b7f4e487b7100000000000000000000000000000000000000000000000000000000600052601160045260246000fd5b7f4e487b7100000000000000000000000000000000000000000000000000000000600052601260045260246000fd5b7f4e487b7100000000000000000000000000000000000000000000000000000000600052602260045260246000fd5b7f4e487b7100000000000000000000000000000000000000000000000000000000600052604160045260246000fd5b6000601f19601f8301169050919050565b7f547279696e6720746f207769746864726177206d6f7265206d6f6e657920746860008201527f616e2074686520636f6e7472616374206861732e000000000000000000000000602082015250565b7f4661696c656420746f207769746864726177206d6f6e65792066726f6d20636f60008201527f6e74726163742e00000000000000000000000000000000000000000000000000602082015250565b50565b7f576169742031356d000000000000000000000000000000000000000000000000600082015250565b61134781611095565b811461135257600080fd5b5056fea2646970667358221220c4cd215ab392f46c0fd14dbf0bc8b67f0da473a3ea11e050f04310e3af83ffa464736f6c63430008040033596f20796f2c204920616d206120636f6e747261637420616d204920616d20736d617274",
  "linkReferences": {},
  "deployedLinkReferences": {}
}